S01300004653505F50726F6A6563742E73726563F2
S3150000000000040020F5120000FD150000F1120000AA
S31500000010F1120000F1120000F1120000F1120000CE
S31500000020000000000000000000000000451900006C
S31500000030F1120000000000005D190000C519000063
S3150000004010B5054C237833B9044B13B10448AFF30C
S3150000005000800123237010BD200400200000000052
S3150000006084A2000108B5034B1BB103490348AFF353
S31500000070008008BD000000002404002084A20001C6
S315000000804FF0FF31002200F10803C0E90131C0E959
S3150000009003330260704700BF00230361704700BF4F
S315000000A030B40D686B1C10D000F108031C465B6869
S315000000B01A68AA42FAD902684B60013299608C60CC
S315000000C06160086130BC0260704704696368F2E7EA
S315000000D00346026910B45468406899689C4281607E
S315000000E0486008BF5160002110685DF8044B013874
S315000000F019611060704700BF70B5054601F096FCA7
S3150000010095F845305CB2002C14DD05F1240603E0B9
S31500000110631EDAB25CB26AB16B6A5BB1304600F05C
S3150000012087FE0028F4D000F027FF631EDAB25CB227
S31500000130002AF1D1FF2385F8453001F089FC01F052
S3150000014075FC95F844305CB2002C14DD05F1100600
S3150000015003E0631EDAB25CB26AB12B695BB130466A
S3150000016000F066FE0028F4D000F006FF631EDAB247
S315000001705CB2002AF1D1FF2385F84430BDE8704017
S3150000018001F066BC70B51646026C0446856B02B378
S315000001907EB9406801F0D0FD6368216CA2680B440B
S315000001A09342636005F1010514D32368A563636078
S315000001B070BDC06801F0C0FD226CE36851429B1A15
S315000001C02268E360934202D2A3680B44E360022EE6
S315000001D002D00135A56370BD012D38BF0125F9E7B1
S315000001E070B330B51C4683B03BB352B379B34823E2
S315000001F00193019BA1FB0035C4E90F012260E5B91B
S3150000020001F014FCD4E90F31A563FF2501FB03F3CC
S315000002102268591A626013440A44C4E9023204F19E
S31500000220100084F8445084F84550FFF729FF04F184
S315000002302400FFF725FF01F00BFC204603B030BD7C
S31500000240704739B9482301932246019BD2E70846F5
S3150000025003B030BD1046F1E770B370B588420D4665
S3150000026082B02AD3144622B348230026D0631260F4
S3150000027001931664019B01F0D9FBD4E90F30FF21ED
S3150000028000FB03F32268181A626013440244C4E9AF
S315000002900232A66304F1100084F8441084F8451075
S315000002A0FFF7EEFE04F12400FFF7EAFE01F0D0FBB3
S315000002B0A563204602B070BD7047002002B070BD35
S315000002C02DE9F041044684B01F460192884601F0AC
S315000002D0ADFBA26BE36B9A4250D3022F4ED00020A7
S315000002E03A4D06460DE001F0B3FB2046FFF704FF4A
S315000002F000F034FC01F09AFBA26BE36B01209A42FA
S315000003003CD3019B002B46D0A0B301F0A1FB00F02B
S315000003101DFC01F08BFB94F84430FF2B08BF84F8DA
S31500000320446094F84530FF2B08BF84F8456001F01F
S315000003308FFB02A801A900F0EFFD90BB01F076FB50
S31500000340A26BE36B9A42CED101F082FB019904F1D4
S31500000350100000F035FD2046FFF7CEFE00F0FEFB54
S315000003600028C7D14FF080536B60BFF34F8FBFF3A8
S315000003706F8FBFE702A800F0C3FDC6E73A464146C5
S315000003802046FFF7FFFE636A8BB901F061FB01208F
S3150000039004B0BDE8F08101F05BFB002004B0BDE8CD
S315000003A0F0812046FFF7A8FE00F0D8FBF5E704F140
S315000003B0240000F03DFD0028E7D04FF08052034BAB
S315000003C05A60BFF34F8FBFF36F8FDEE700ED00E09B
S315000003D0F0B5044685B00F46019201F027FBA56BE8
S315000003E0002D59D1019BA3B302A800F089FD2E462A
S315000003F001F02EFB00F0AAFB01F018FB94F8443044
S31500000400FF2B08BF84F8446094F84530FF2B08BFE3
S3150000041084F8456001F01CFB01A902A800F07CFDF0
S31500000420E0B901F003FBA36B2BBB01F011FB0199B3
S3150000043004F1240000F0C4FC2046FFF75DFE00F046
S315000004408DFB00B301F0F2FAA56B2DBB019B002BCF
S31500000450CED101F0FDFA002005B0F0BD2046FFF731
S315000004604BFE00F07BFB01F0E1FAA36B002BF0D012
S3150000047001F0EEFAE6E701F0EBFA2046FFF73CFE64
S3150000048000F06CFBDEE74FF08052164B5A60BFF36C
S315000004904F8FBFF36F8FD5E7226C5AB1E168A3681F
S315000004A011449942E16028BF2168384628BFE160BF
S315000004B001F042FC2369013DA56323B901F0C8FAA6
S315000004C0012005B0F0BD04F1100000F0B1FC0028D9
S315000004D0F4D04FF08052034B5A60BFF34F8FBFF3F7
S315000004E06F8FEBE700ED00E070B5044684B0019134
S315000004F001F09CFAA56B002D59D1019BA3B302A86C
S3150000050000F0FEFC2E4601F0A3FA00F01FFB01F0FE
S315000005108DFA94F84430FF2B08BF84F8446094F8B1
S315000005204530FF2B08BF84F8456001F091FA01A918
S3150000053002A800F0F1FCE0B901F078FAA36B2BBB3E
S3150000054001F086FA019904F1240000F039FC2046F6
S31500000550FFF7D2FD00F002FB00B301F067FAA56BCE
S315000005602DBB019B002BCED101F072FA002004B006
S3150000057070BD2046FFF7C0FD00F0F0FA01F056FA14
S31500000580A36B002BF0D001F063FAE6E701F060FA06
S315000005902046FFF7B1FD00F0E1FADEE74FF08052AA
S315000005A00F4B5A60BFF34F8FBFF36F8FD5E72369A9
S315000005B0013DA56323B901F04BFA012004B070BDDB
S315000005C004F1100000F034FC0028F4D04FF0805203
S315000005D0034B5A60BFF34F8FBFF36F8FEBE700BF3C
S315000005E000ED00E011B330B4124C6368224683423A
S315000005F01DD0A446002354F833508DB101330A2B85
S3150000060002F1080207D055689446A842F3D104EBDC
S31500000610C30CCCE9001030BC70475568A842F6D030
S3150000062001330A2B02F10802F7D1F2E770470023E3
S31500000630EDE700BF4004002070B504460E4615469F
S3150000064001F0F4F994F84430FF2B04BF002384F83A
S31500000650443094F84530FF2B04BF002384F845301E
S3150000066001F0F6F9A36B23B12046BDE87040FFF711
S3150000067043BD04F124002A46314600F0B1FB204672
S31500000680BDE87040FFF738BD2DE9F8430446264B18
S315000006902648274A274DD0F800901768D3F80080DF
S315000006A028680E460430FFF713FD631C17D02B682D
S315000006B019EB04045C600BD2296838460431FFF755
S315000006C0EFFC1D4B1A68A24200D91C60BDE8F883F6
S315000006D029684046BDE8F8430431FFF7E1BC76B926
S315000006E02B6809F1FF325A60B9F1000FF0D1296881
S315000006F038460431FFF7D4FC0F4B1B68E6E70F4B77
S3150000070029685A681C688A602E6801342868296836
S315000007101C602D68946804300431F4606060916058
S315000007206B61BDE8F88300BFFC040020B404002020
S31500000730000500209005002098040020BC0400203D
S3150000074080B54FF08059134C134F144EDFF8548088
S31500000750134D0EE001F06AF9FB68D8680430FFF724
S31500000760B7FC3368013B33602368013B236001F02B
S315000007706FF92368002BEDD1D8F80030012B05D98D
S31500000780C5F80490BFF34F8FBFF36F8F01F06EF97A
S31500000790EFE700BFD0040020D4040020B8040020F6
S315000007A000ED00E02C0500202DE9F04F4A4B83B008
S315000007B01D6801351D60002D75D048490B689D42A6
S315000007C061D3474E33681868002868D00020AA46CF
S315000007D007468146DFF820E1424C019146E0586920
S315000007E0D3E9022CC2F808C0CCF8042042688A4239
S315000007F0026808BFC0F804C0013A5F610260986AE7
S3150000080070B1D3E9072CC2F808C0CCF804204268BE
S31500000810AA42026808BFC0F804C0013A9F6202609B
S31500000820DA6ADEF8000002EB820C04EB8C088242E6
S31500000830D8F8040054F82C50D0F808B09860C3F8E3
S315000008400CB0CBF804108160C3F81480264B88BF27
S31500000850CEF8002019680135336844F82C50C96A6F
S315000008601B688A4288BF49F00109B3B13368DB6867
S31500000870DB685A68191D924503F11805AFD2019934
S3150000088048460A6000E00020184B1B68002B18BF82
S3150000089040F0010003B0BDE8F08F484601994FF0E3
S315000008A0FF330B60F0E70E4B114A186811681960A8
S315000008B0104910600A6801320A601A68126822B983
S315000008C04FF0FF3305490B6078E71B680349DB6887
S315000008D01B680B6072E700BFB40400209804002078
S315000008E0000500202C05002090050020A40400200F
S315000008F0FC040020A0040020B00400204FF0600C8F
S315000009002DE9F04383B00C9CCDF804C01F46DDF8FA
S315000009102C80019B002C74D0B8F1000F75D01546C1
S315000009208946624606460021204601F0FDF905F19A
S315000009308042013A08EB8202C4F8308022F00708B0
S31500000940B9F1000F0FD009F1FF3C04F1330E09F1A4
S315000009500F091CF9015F0EF8015F0DB1CC45F8D106
S31500000960002384F843300A9B251D042B28BF04234B
S315000009709946E3622846FFF78FFB04F11800FFF75C
S315000009808BFBC9F105033246216BA36140463B460A
S315000009902461646201F030F8206001F047F83D4AB6
S315000009A03D4F1368013313603B68002B31D0DFF8ED
S315000009B01081E36AD8F80020002A33D0374E384930
S315000009C038480A6801320A6002689A4238BF0360F2
S315000009D003EB830306EB83014A689B009068A260E1
S315000009E0E06045609560F25861610132F25001F0B5
S315000009F02FF8D8F8003023B13A68E36AD26A9A42EF
S31500000A0016D3204603B0BDE8F083404603B0BDE8E8
S31500000A10F0833C601368012B13D0E36A1F4EDFF8A6
S31500000A20A080CCE73A68D26A9A4298BF3C60C5E794
S31500000A304FF080521C4B5A60BFF34F8FBFF36F8F3E
S31500000A40DFE7164EB04606F16409404608F1140881
S31500000A50FFF716FBC145F8D1DFF86890DFF868802C
S31500000A604846FFF70DFB4046FFF70AFB0F48FFF726
S31500000A7007FB0F48FFF704FB0E48FFF701FB0E4B81
S31500000A80C3F800900D4BC3F80080E36ADFF83080AE
S31500000A9095E700BFB8040020900500202C05002033
S31500000AA09C040020B004002000ED00E0E8040020D3
S31500000AB0D4040020BC04002000050020FC04002013
S31500000AC0AC040020180500200405002010B5002401
S31500000AD08CB0174B07AA06A905A80893CDE90544CB
S31500000AE08DF8244001F0D4F8DDE905122346CDE95E
S31500000AF001211048079A009408A9FFF7FFFE0E4B44
S31500000B00186018B90D4B1B680CB010BD00F0C2FB85
S31500000B100128F7D180F310884FF0FF3C0849094AB5
S31500000B20094BC1F800C010601C6001F001F8E9E74C
S31500000B3049444C454107000094040020541D000020
S31500000B4098040020AC040020B4040020024A136874
S31500000B5001331360704700BF900400202DE9F04F69
S31500000B60DFF87C8183B000F061FFD8F80030013BEC
S31500000B70C8F80030D8F800A0BAF1000F40F08E8017
S31500000B804E4B1B68002B00F08980DFF858C1DCF85B
S31500000B900030002B00F08E80494B4A4E0193DCF862
S31500000BA00C30DB689A6AD3E90701546881604860B3
S31500000BB003F11800844208BF51601168C3F828A0E9
S31500000BC0013911605A69D3E902148C606160516879
S31500000BD01D1DA94211683C4801F1FF31116008BF93
S31500000BE054600068DA6ADCF800E0824288BF364862
S31500000BF002EB820188BF0260344806EB8107006879
S31500000C007C68D0F82C9056F82100D4F808B0013052
S31500000C104A459C60C3F80CB0CBF80450A5605F61F0
S31500000C2046F8210002D90122019B1A60BEF1000F8D
S31500000C30B5D1274B1A681268002A36D01A68254B98
S31500000C40D26812681A60244D2C689CB10126019F57
S31500000C5005E0FFF7A9FD00B13E60013C09D0D8F8D8
S31500000C600030002BF5D02B68013C03F101032B600B
S31500000C70F5D12C60019B1B6883B14FF08052174B56
S31500000C80124909685A60BFF34F8FBFF36F8F012473
S31500000C9000F0DEFE204603B0BDE8F08F002400F031
S31500000CA0D7FE204603B0BDE8F08F4FF0FF32094B68
S31500000CB01A60C8E7024B0193C5E700BFB8040020DD
S31500000CC0A40400202C050020B0040020900500207C
S31500000CD00005002098040020A804002000ED00E094
S31500000CE090040020E804002008B540B94FF0805277
S31500000CF0094B5A60BFF34F8FBFF36F8F08BD074A8A
S31500000D001368013313600021FFF7BEFCFFF726FFCF
S31500000D100028EBD008BD00BF00ED00E090040020E5
S31500000D20014B1868704700BFB4040020054B1B68D0
S31500000D300BB9FFF739BD044A00201368013313606D
S31500000D40704700BF90040020A8040020174B1B68C2
S31500000D501BB10122164B1A607047154A30B4154C68
S31500000D6013602368144903EB830251F8225098005C
S31500000D7001EB82022DB952F8140D013B0028FAD07E
S31500000D809800C21801EB8200014642680831526899
S31500000D908A42426008BFC268084908BF4260D268FA
S31500000DA00A6023600B6830BC704700BF90040020C7
S31500000DB0A4040020B00400202C050020900500208B
S31500000DC010B50C46054B19681831FFF769F920462E
S31500000DD0BDE810400121FFF757BC00BF9005002079
S31500000DE00346F0B5114C002A2768D4F800E02668BF
S31500000DF02568D4F800C05C6808BF084611461A6822
S31500000E00FC61A76806F1180605F1180502F1010252
S31500000E10CEF8207018BF4FF0FF307E60A560CCF88A
S31500000E202830BDE8F0401A60FFF72EBC9005002080
S31500000E30F0B40026C368DB689A6AD3E907018160CB
S31500000E404860506803F11804A042274808BF516063
S31500000E50116805680139D86A9E621160002D2FD18C
S31500000E60D3E902415A69A1604C6054681E1DB44220
S31500000E7008BF51601168013911601C4A116881422E
S31500000E801B4938BF106000EB800201EB82077D68CA
S31500000E909200D5F808C08C589D60C3F80CC0CCF8F9
S31500000EA00460AE605F61134B01341B688C50DB6AD3
S31500000EB0834215D2F0BC01230F4A184613607047CF
S31500000EC00E4A15685168013515608D68D9611D6235
S31500000ED06C608C609A62074B1B68DB6A8342E9D3BD
S31500000EE0F0BC0020704700BF90040020B004002032
S31500000EF02C05002090050020A4040020E804002012
S31500000F00034A044B12681B68C0E90023704700BF00
S31500000F10A0040020B4040020F8B50D46044600F0F5
S31500000F2085FD2B68124A581C11681BD0D4E9006055
S31500000F30DFF840C0DCF80070BE4208D0884206D810
S31500000F40002301242B6000F083FD2046F8BD0F1A14
S31500000F50BB42F5D95B1ADCF80010126803442B601B
S31500000F60C4E90012002400F073FD2046F8BD00BF5E
S31500000F70B4040020A00400200122014B1A6070472F
S31500000F80A4040020F0B5124C83B000F04FFD256894
S31500000F9025B103B0BDE8F04000F05ABD0D4E0E4F2E
S31500000FA03046FFF76DF83846FFF76AF80B490C4BE9
S31500000FB000950A201F600E600A4B0C210A4AFFF7B3
S31500000FC00FF920600028E4D00849FFF70BFBE0E7A3
S31500000FD05C0600207C0600206806002064060020CF
S31500000FE06006002094050020DC050020581D000046
S31500000FF02DE9F047DFF884900546D9F800300F4612
S31500001000DB68DC6804F104084046FFF761F894F8F1
S3150000101024305A070ED423F0010384F824302046E6
S31500001020236ABDE8F047184793421BD82046236A37
S3150000103098473546A3697A1BEE182CBF012100217B
S31500001040B74266602461EFD2AF4201D20029EDD0EB
S31500001050D9F800004146FFF723F82046236ABDE889
S31500001060F0471847044B41461868FFF719F8204621
S31500001070236ABDE8F0471847600600206406002092
S315000010802DE9F04F4FF000097D4DDFF80082DFF8C3
S3150000109000A27C4C85B02B681F68002F40F0C780EB
S315000010A0FFF754FDFFF73CFED8F80030064698429D
S315000010B044D3DAF80030C8F800001A68B2FA82F2AF
S315000010C052092068B91BFFF7B7FAFFF747FD38B991
S315000010D04FF080526C4B5A60BFF34F8FBFF36F8F48
S315000010E0CDE90199CDF80C900022206801A9FFF7FF
S315000010F06FF90028CFD0019B002BF5DB039E7369A7
S3150000110013B1301DFEF7E4FFFFF70AFED8F80030F2
S315000011100746984226D3019BC8F80070013B082B6E
S31500001120E2D8DFE803F02929486E482929486E00ED
S31500001130DB684FF0FF311868FFF75AFF2B681A6813
S31500001140002AF5D1DAF80020C8F800602A60CAF84B
S315000011500030FFF703FDC3E7DB684FF0FF31186887
S31500001160FFF746FF2B681A68002AF5D1DAF8002047
S31500001170CAF800302A60CEE796F82410029AB069C1
S3150000118041F0010386F8243013182CBF4FF0010CF0
S315000011904FF0000CBB42366173605AD8BA1A9042BF
S315000011A03FD84A0715D421F0010186F824103046AD
S315000011B0336A984798E796F8243023F0010386F8B7
S315000011C0243091E7814255D33046336A98475B46CF
S315000011D0B06913EB000B2CBF4FF0010C4FF0000C65
S315000011E05F45A7EB0301C6F804B03661EAD29F4219
S315000011F002D2BCF1000FE7D02868311DFEF750FF80
S31500001200D5E7029A96F82430D11943F00103B94282
S3150000121086F82430B261716036611FD8002A3FF427
S3150000122063AFDAF80000311DFEF73AFF5CE7DB68D2
S315000012301F68FFF78BFCFFF773FDD8F800300646F2
S3150000124083423FF67BAF8742C8F800000BD90022E5
S3150000125037E7BA4202D9BCF1000FA2D02868311D87
S31500001260FEF71EFF40E7FFF779FC31463846FFF7E9
S31500001270BFFE35E7DAF80000311DFEF711FF96E7ED
S31500001280640600205C06002000ED00E05406002005
S315000012906006002010B588B0FFF774FE0F4B186883
S315000012A0C8B1002407AA06A905A8CDE9054400F09F
S315000012B0FDFC03222346059C00920294069C079A95
S315000012C0074908480194FFF719FB0346003818BF81
S315000012D00120054A136008B010BD00BF5C0600205F
S315000012E0601D00008110000058060020704700BFF6
S315000012F000BE704708B500F035F800F0A7FCFEE721
S31500001300F8B5174F05463E68A6B17C6806EB46065B
S3150000131004EB860602E00C34B4420BD0637AAB428F
S31500001320F9D1D4E900020021121A0C3400F0FCFCB9
S31500001330B442F3D1BE6896B1FC6804EB061602E02F
S315000013401034A6420BD0637BAB42F9D1D4E900023C
S31500001350A168121A103400F0EFFCA642F3D1F8BDD2
S31500001360881D00004FF47001274B284A70B50020F5
S31500001370C3F888109A6000F0CBFC00F067F80120F3
S3150000138000F0C6FC224B83F30A880020FFF7B8FF63
S3150000139000F048F800F0D2F8032000F0B1F900237D
S315000013A04FF6FF701B4903F1080201330C2B21F89D
S315000013B01200F8D10024032000F072F9032000F097
S315000013C09FF9154B03205C609C60DC601C6100F09B
S315000013D067F9022000F09CFC0120FFF791FF0F4DFA
S315000013E00F4B5B1BA3424FEAA30605DD55F8043BF2
S315000013F001349847A642F9DC00F01EF9BDE87040BA
S315000014000020FFF773BF00BF00ED00E00000000002
S3150000141000000020000D084000000E405021000092
S3150000142054210000064B074993F826001A6A51F822
S315000014302030C2F302620449D3400B60704700BFFC
S3150000144000E0014000040020900600204AF203500C
S3150000145001233049304A2DE9F043A1F8FE03A2F8F2
S315000014600431B2F804319BB2002BFAD101244FF4B7
S3150000147000452A482A49C0E903338560A2F800419D
S31500001480284A8C600C600260274A01F5B83191F851
S31500001490265042600A6A81F8804481F83630234B30
S315000014A0436191F83C30DA07FBD542F21174002310
S315000014B0184A0C8581F82A3092F83C309B06FBD5F9
S315000014C04FF0030905270123F1264FF0F00E4FF4E4
S315000014D0254C114CDFF8608084F81C91C2F82080FE
S315000014E082F8267092F82640114950F82400146AB2
S315000014F0104DC4F30264E04028600E730B7281F84D
S315000015000CE082F8303082F85230A2F8FEC3BDE813
S31500001510F08300BF00E0014000C00140000400204D
S3150000152000700040002D310100127A0000C2EB0B62
S3150000153000200040900600202112012010B5002452
S31500001540064B012083F8284000F0DAF8044B01200E
S3150000155083F8BB44BDE8104000F0A2B80030084054
S3150000156000E00140A0F101000028FBD1704700BF58
S315000015701F4B204A1B6800FB01F1934213D302F173
S31500001580854202F5071203F5741302F6834203F649
S31500001590FF03A2FB03231B0DA3FB01314FF0FF301A
S315000015A0F9B1FFF7DFBF4FF47A7210B4A1FB02C4A2
S315000015B01148B0FBF3F34FF0FF3044B9BCFBF3FC2A
S315000015C04FEA9C0088B15DF8044BFFF7CBBF9B0048
S315000015D0B1FBF3F1A1FB0212002AF4D1084620B1B7
S315000015E0F1E71846002BDCD170475DF8044B7047D5
S315000015F09006002000127A0000CA9A3B70B50024BB
S315000016000B4B0C4EB3F82021B3F84051ADB2154048
S3150000161025FA04F3DB0704D556F82430E0B203B10B
S3150000162098470134102CF3D1014BA3F8305170BD0B
S31500001630006000409406002010B5032084B000F03E
S315000016405FF84FF0FF326FF0FF011148114B04882D
S315000016509964CDE9012203921CB16FF001031A4689
S3150000166001930C490C4B0A67C3F88022029A0320A7
S315000016704A67C3F88422039A8A67C3F8882200F06F
S315000016800FF814B1054BC3F8004304B010BD00BFFA
S31500001690781D00000080004000E100E0006000408E
S315000016A0EFF31081012383F31088124B33F81020D7
S315000016B092B22AB133F81020013A92B223F81020E0
S315000016C033F810309BB293B90B4A10B4B2F8FE331C
S315000016D00A4C9BB234F8100043F4254323EA000376
S315000016E0A2F8FE3381F310885DF8044B704781F34E
S315000016F010887047D806002000E001407C1D0000DD
S3150000170030B4EFF31081012383F310880E4A32F8C8
S3150000171010309BB26BB90D4C0D4DB4F8FE3335F855
S3150000172010C09BB243EA0C0343F425439BB2A4F8D2
S31500001730FE3332F8103001339BB222F8103081F3B9
S31500001740108830BC704700BFD806002000E001407A
S315000017507C1D00000B0A10B41B01064C53FA81F1E4
S3150000176054F821300020C3F340035DF8044B137096
S31500001770704700BF000808400120CBB2984080B2F5
S3150000178002B900040B0A5B0103F1804303F5002351
S3150000179098600020704700BF2DE9F84F0388DBB141
S315000017A082464FF0000B4FF00109DFF8D08000248D
S315000017B0304D4FEACB07DAF8043035F8022BD91949
S315000017C0898891420AD00134032CF4D1BAF800304A
S315000017D00BF1010B5B45EAD8BDE8F88FDB5909FA36
S315000017E004F603F0B853B3F1807FF6B298F8BB3431
S315000017F013D0334231D1204A04F1200612F81630B4
S31500001800DB09E0D012F81630012123F08003C8204E
S3150000181002F81630FFF7ACFED5E7334211D0164A70
S3150000182004F1200112F81130DB09CCD112F8113085
S31500001830C82043F0800302F811300121FFF798FE1B
S31500001840C1E70120FFF75CFF98F8BB340120334362
S3150000185088F8BB34FFF724FFE1E70120FFF750FFCC
S3150000186098F8BB34012023EA060388F8BB34FFF757
S3150000187017FFC0E7601E00000030084000E001408E
S31500001880F8B50446FFF788FFEFF31082012383F3D0
S315000018901088234F3B681BB92249CB704023CB707D
S315000018A03B6801333B6082F3108823882BB3616861
S315000018B01D4C01EBC30E06E01B01083113448E4597
S315000018C044F8230019D008688A88C5034FEA122312
S315000018D0D2B2F1D502EB031C54F82C601B0108317F
S315000018E020F4803526F4803613448E4544F82C6067
S315000018F044F82C5044F82300E5D1EFF3108201237D
S3150000190083F310883B6813B13B68013B3B603B683F
S315000019101BB980200349CB70C87082F31088F8BDCC
S31500001920D4060020000D08400008084008B5034B07
S3150000193003600846FFF7A4FF002008BD54524F502D
S3150000194000BEFEE71EF0040F0CBFEFF30880EFF3B6
S315000019500980014908470000E91900000F4B196882
S31500001960EFF309821EF0100F08BF22ED108A22E95C
S31500001970F04FEFF30B8342F8043D0A604FF010007E
S3150000198080F31188BFF34F8FBFF36F8FFFF7DEF938
S315000019904FF0000080F3118800F002B89005002097
S315000019A0074801680A6802CA81F30B88B2E8F04F5B
S315000019B01EF0100F08BFB2EC108A82F30988704738
S315000019C09005002010B5EFF31184102383F31188DE
S315000019D0FFF7ACF918B14FF08052024B5A6084F30E
S315000019E0118810BD00ED00E0836913F8023C022B5C
S315000019F000D07047FFF7D4BF70B44FF080756FF01A
S31500001A000204094E283122F0010240F80C6C40F81D
S31500001A10045C40F8244C40F8203C40F8082C70BC8C
S31500001A2040F8481D704700BF41190000EFF31181CF
S31500001A30102383F31188044A13680133012B1360C2
S31500001A4004BF024B19607047E8060020E406002038
S31500001A50044A1368013B13601BB9034B1B6883F3ED
S31500001A6011887047E8060020E406002008B572B623
S31500001A70FFF76CF81C4B9A8911040DD4BFF34F8FF6
S31500001A8030BFBFF36F8F62B6BFF36F8F72B662B6A9
S31500001A90BDE80840FFF762B84AF202504FF0000C6A
S31500001AA091B2B3F8FE23A3F8FE0392B242F42542A4
S31500001AB0A3F80CC0A3F8FE23BFF34F8F30BFBFF3CC
S31500001AC06F8F62B6BFF36F8F72B6B3F8FE23A3F8BB
S31500001AD0FE0392B242F425429981A3F8FE2362B630
S31500001AE0BDE80840FFF73AB800E001400D4B0E4A4A
S31500001AF01B68A2FB03239B09013BB3F1807F00D344
S31500001B0070474FF0E0224FF0F00C0020072110B490
S31500001B10064C536184F823C05DF8044B9061116153
S31500001B20704700BF90060020D34D621000ED00E024
S31500001B30F02208B50B4B83F82220FFF7D7FF0A4A9D
S31500001B40536B43F04043536362B6BFF36F8FEFF3BB
S31500001B50148C2CF0040C8CF31488BFF36F8F02DF07
S31500001B6000BEFDE700ED00E000EF00E010B5044622
S31500001B7000F038F82046BDE8104000F0A5B800BFD8
S31500001B8030B501240D480E4A03680E4D85B019196B
S31500001B90CDE901250C4B016080220C490C480094CC
S31500001BA0FEF7ACFE0B4B186008B105B030BD014620
S31500001BB005B0BDE8304000F013B800BF680C002047
S31500001BC0700C0020F0060020681E0000681D000052
S31500001BD06D1B0000EC060020704700BFFFF7FCBF3E
S31500001BE000BE704738B5164C4FF0FF312068FEF73F
S31500001BF07BFC012803D000212068FFF7F1FF114B81
S31500001C001A7802B138BD01221A70FFF7E7FF0E4DB0
S31500001C102B68013B2B60002BF4D0002320681A466A
S31500001C201946FEF74DFB0128F2D000212068FFF788
S31500001C30D7FF2B68013B2B60002BEED138BD00BFD0
S31500001C40600C0020640C0020680C002038B50023CE
S31500001C500B4D0C4C01214FF480700B4A2B60237006
S31500001C60FEF7FAFA094B186028B1FFF789FFFEF76D
S31500001C702DFF002038BD0146FFF7B2FFF5E700BF94
S31500001C80680C0020640C0020180C0020600C00205A
S31500001C90802330B4034D044C05600C60136030BCE7
S31500001CA0704700BFB80B0020B8090020802330B46D
S31500001CB0034D044C05600C60136030BC704700BFD8
S31500001CC05809002058070020012300B583B08DF87D
S31500001CD0073008E0012240F20A610C48FFF74CFD8C
S31500001CE01420FFF701F840F6040108480DF1070239
S31500001CF0FFF730FD9DF80730002BEBD0002240F2B5
S31500001D000A610248FFF738FDEAE700BF50070020E6
S31500001D10022800D0704702490248FFF707BE00BFFD
S31500001D206C1E00005007002002440346934200D177
S31500001D30704703F8011BF9E70A44431E914200D19C
S31500001D40704710B511F8014B914203F8014FF9D1D4
S31500001D5010BD000004000000546D72510000000028
S31500001D60546D722053766300426C696E6B79205411
S31500001D706872656164000000000000000100020056
S31500001D80080010002000000004000000301E0000C3
S31500001D9008000000B01D000002000000A01D0000A9
S31500001DA0000000680000006800000020000000201D
S31500001DB000000068000000680000006000010C08D8
S31500001DC000000068000000680000007000010908BB
S31500001DD0000000680000006800000008000102081A
S31500001DE000000068000000684000000000010108D3
S31500001DF000000020000000200000006000010C032D
S31500001E00000000200000002000000070000109030F
S31500001E10000000200000002000000008000002036F
S31500001E200000002000000020400000000000010328
S31500001E30000000680000006800010008000000685B
S31500001E4000000068000100080000002000000020DB
S31500001E5000000003200400206C0C0020000000039A
S31500001E600204030404040000000000005000000007
S31500001E70781E000000000000008000000000000046
S31500001E800080000001000000008000000200000049
S31500001E900080000003000000104000000400000065
S31500001EA01040000005000000104000000600000081
S31500001EB01040000008000000008000000E00000036
S31500001EC0008000000F000000000000000401000078
S31500001ED00000000005010000000C010008010000E0
S31500001EE0000000000B010000000C01120C010000B4
S31500001EF0000C01120D010000000C01120E01000081
S31500001F00000000000F0100000000010502020000B1
S31500001F1000000105030200000000010504020000A4
S31500001F200000010505020000000000000602000096
S31500001F300000000007020000000000000802000088
S31500001F40450C00000A020000000C01170B020000FD
S31500001F50000C01170E020000000C01000003000037
S31500001F60450C000003030000450C000006030000BA
S31500001F70450C000007030000450C00000B030000A1
S31500001F80400C010700040000400C0107010400009A
S31500001F90104000000204000010400000030400008E
S31500001FA01040000004040000000C011705040000A6
S31500001FB0000C011706040000000C011307040000C2
S31500001FC0450C000009040000000C01060A0400008C
S31500001FD0000C01060B040000000C01060C040000B6
S31500001FE0000C01060D040000000000000E040000B5
S31500001FF0000000000F040000000C010500050000B1
S31500002000000C010501050000000C01050205000099
S3150000201000000000030500000000000005050000A8
S315000020200000000006050000000C01050805000080
S31500002030400C01070B050000400C01070C050000D1
S31500002040040C000001060000040C0000020600005B
S31500002050040C000003060000040C00000506000046
S315000020600000000008060000040C0000090600003D
S31500002070040C00000A060000000000000B06000029
S31500002080400C01050D060000400C01050E0600007F
S31500002090000C01130F060000000C011700070000DA
S315000020A0000C011701070000000C011702070000D1
S315000020B0000C011703070000000C011704070000BD
S315000020C0000C011705070000000C010506070000BB
S315000020D0000C0105070700000000000008070000CB
S315000020E00040000003080000004000000408000053
S315000020F0000C0113080A00004275696C74207769A8
S3150000210074682052656E6573617320416476616EF2
S3150000211063656420466C657869626C6520536F66FA
S315000021207477617265205061636B616765207665BF
S315000021307273696F6E20362E332E3000362E332E94
S30D00002140300000000000030658
S30900002148F8B500BF21
S3090000214CF8B500BF1D
S309000021506500000020
S309000021544100000040
S3090100A100FFFFFFFF58
S3090100A200FFFDFFFF59
S3090100A280F8F8FFFFE5
S705000012F5F3
